:020000040800F2
:1000000048050020214C0008054900080749000860
:10001000094900080B4900080D49000800000000CC
:100020000000000000000000000000000F49000870
:100030001149000800000000134900081549000894
:10004000814C0008854C0008894C00088D4C000844
:10005000914C000821490008954C0008994C000873
:100060009D4C0008A14C0008A54C0008A94C0008B4
:10007000AD4C0008B14C0008B54C0008B94C000864
:10008000BD4C0008C14C0008C54C0008C94C000814
:10009000CD4C0008D14C0008D54C0008D94C0008C4
:1000A000DD4C0008E14C0008E54C0008E94C000874
:1000B000ED4C0008F14C0008F54C0008F94C000824
:1000C000FD4C0008014D0008054D0008094D0008D1
:1000D0000D4D000823490008114D0008154D00087A
:1000E000194D00081D4D0008214D0008254D000840
:1000F000294D00082D4D0008314D0008354D0008F0
:10010000394D00083D4D0008414D0008454D00089F
:10011000494D00082D4900084D4D0008514D00087B
:10012000554D0008594D00085D4D0008614D00080F
:10013000654D0008694D00086D4D0008714D0008BF
:10014000754D0008794D00087D4D0008814D00086F
:10015000854D0008894D00088D4D0008914D00081F
:10016000954D0008994D00089D4D0008A14D0008CF
:10017000A54D0008A94D0008AD4D00080000000085
:10018000B14D0008B54D00082DE9F04F80460FF243
:100190003060A5B015461E46D0E90023CDE91223F4
:1001A000002004910D900DF1500A6FF0004900E01D
:1001B00065190020ADF8020012AB4FF0FF3229465E
:1001C0000DF1020001F093F80446012C04DA2878BE
:1001D000441EA441E443E40FBDF8020025280CBFEF
:1001E000A4F1010BA346BBF1010F0EDB2F4617F85C
:1001F000011B0498C0470028049000F0F3800D987C
:10020000401CBBF1010B0D90F1D1BDF80200252877
:1002100007D100200790089009900A900B900C904D
:1002200005E00028C4D10D98D2E240F0010015F895
:10023000011F2029F9D023290DD02B2904D02D29E5
:1002400006D030290AD00CE040F0020080B2EEE780
:1002500040F00400FAE740F00800F7E740F0100033
:10026000F4E72A290ED13168316051F8042B31604E
:10027000002A0F9204D5514240F004000F9180B241
:100280006D1C11E000210F9109E00F99494505D03F
:1002900001EB810302EB430130390F916D1C2A7889
:1002A000A2F130010A29F0D329782E2903D04FF08A
:1002B000FF310E911DE015F8011F2A2907D1316881
:1002C00031606D1C51F8042B31600E9211E0002159
:1002D0000E9109E00E99494505D001EB810302EB2F
:1002E000430130390E916D1C2A78A2F130010A29A0
:1002F000F0D3ADF840000FF2D040297801F00CF8AF
:1003000008B115F8010B8DF842009DF842006828ED
:1003100002BF29786829622005D06C2804BF28789C
:100320006C2803D171208DF842006D1C14A8069032
:1003300015F8014BB4F125002AD01C3800F0D48008
:10034000001F022840F2D080133800F0F5800938F1
:1003500000F0CA80801E00F05C81401E00F03581F4
:10036000401E022840F2C080001F00F02E81401F76
:1003700000F08B80401E00F0DF80401E35D0C01E94
:100380000BD0801E00F0D880C01E00F0D58063E145
:1003900025208DF85000012067E19DF842006C286F
:1003A0003068306014D050F8047B306005970E9CA4
:1003B000002C04D5384600F0BBFF044606E0224678
:1003C0000021384600F0D0FF00B1C41B08944DE175
:1003D00050F8042B306002A9404600F033FA0028A0
:1003E00040F144814FF0FF30F2E1316831603C244C
:1003F00051F8040B31600021CDE9020114A80590E9
:10040000DDE90201069F11B908B90E9AB2B10206E0
:10041000120FA0EB02123032D2B2631E3A2AA8BFEA
:1004200027320009DA5540EA0170090908BF00289F
:100430001C4603D0059AE3199A42E8D3E0190590C7
:10044000C4F13C010E980891814209DA401A0A90E1
:100450004FF6EF71BDF840000840ADF8400005E1EF
:10046000002840F103819DF8400000F0140010289E
:1004700040F0FC800F98079A801A0A9A801A441A52
:10048000012CC0F2F3800A94F0E09DF8420062284B
:100490001AD0682806D06A280CD06C281CD0712885
:1004A00008D019E03068306050F8041B30600D98B7
:1004B0000880DBE03068306050F8042B30600D9825
:1004C000C117C2E90001D1E03068306050F8041B68
:1004D00030600D980870C9E03068306050F8041B37
:1004E00030600D980860C1E03068C01D20F0070240
:1004F0003260D2E9000108323260CDE90201002900
:1005000002D507982D210AE0BDF84000810702D5E9
:1005100007982B2103E0C00705D50798202100F894
:100520000A10401C079014A8079908180590214646
:1005300002A800F091FB99E09DF842006C280DD0D4
:10054000712818BF6A2809D13068C01D20F0070241
:100550003260D2E900010832326005E03168316072
:1005600051F8040B31600021CDE902019DF84200F1
:10057000682803D1DDE9020180B20BE0622803D1D3
:10058000DDE90201C0B205E0742818BF7A2804D161
:10059000DDE902010021CDE902019DF840000007DC
:1005A0002ED5DDE90201002908BF002828D044F03B
:1005B0002000782824D10798302100F80A10401C28
:1005C000411C079100F80A401AE09DF842003146AC
:1005D00000F001F9CDE90201002902DA07982D2186
:1005E0000AE0BDF84000810702D507982B2103E0FF
:1005F000C00705D50798202100F80A10401C079075
:1006000014A8079908180590214602A800F0A0FA3E
:100610002CE09DF842006C2809D00120079030683A
:10062000306050F8041B30608DF850101EE03068C8
:10063000306001AA50F8041B3060ADF804100020AF
:10064000ADF8060002A94FF0FF300E90404600F0D2
:10065000F9F800280AD5C5E625208DF850000120BC
:1006600007901CB18AF80140022007900F98079963
:10067000401A0A99401A0899401A0B99401A099988
:10068000401A0C99441A9DF84000400710D42020CD
:10069000012C8DF800000BDB274601236A4602A9D6
:1006A000404600F000FE00287FF49CAE7F1EF4D18F
:1006B000DDF81CB0BBF1000F14AF0DD017F8011B13
:1006C0000498C047002804903FF48CAE0D98401C5D
:1006D000BBF1010B0D90F1D130208DF800000A9F85
:1006E000012F0ADB01236A4602A9404600F0DBFD28
:1006F00000287FF477AE7F1EF4D1DDF820B0059F8F
:10070000BBF1000F0DD017F8011B0498C04700285B
:1007100004903FF467AE0D98401CBBF1010B0D90A7
:10072000F1D130208DF800000B9F012F0ADB01234F
:100730006A4602A9404600F0B6FD00287FF452AE9A
:100740007F1EF4D105980899DDF824B00F18BBF18D
:10075000000F0DD017F8011B0498C0470028049023
:100760003FF440AE0D98401CBBF1010B0D90F1D150
:1007700030208DF800000C9F012F0ADB01236A4610
:1007800002A9404600F08FFD00287FF42BAE7F1EAB
:10079000F4D19DF8400040077FF50BAD2020012CDF
:1007A0008DF80000FFF605AD01236A4602A9404618
:1007B00000F079FD00287FF415AE641EF4D1F8E452
:1007C0000000000000000000686A6C747A4C0000B1
:1007D00025B0BDE8F08F622826D068281DD06A2891
:1007E00008D06C2827D0712804D0742823D07A2808
:1007F0000CD020E00868C01D20F007000860D0E998
:100800000023083008601946104670470A680A60DD
:1008100052F8040B0A60002170470A680A6052F817
:10082000040B0A6000B20BE00A680A6052F8040B7D
:100830000A6040B204E00A680A6052F8040B0A60D9
:10084000C11770472DE9F44F0D4694B0D5F830A08C
:10085000BAF1000F804648BF6FF0004A00F0B0FDCB
:10086000696B401801900FF66C20D0E90023CDE9A8
:10087000022395F83800400702D40198412805D298
:1008800040200DF110090190002609E000F09EFDC6
:100890005FEA0009F8D14FF0FF3056E1AAEB040AF5
:1008A000BAF1010FC0F2CE801498018802AA0DF1AE
:1008B000010000F0E3FD0028044600F1DE801498FA
:1008C000008810B9641E00F1D880A245C0F2BA8039
:1008D000686901992218914280F0A2806E634042BB
:1008E000296A401AA969401A696A401AE969401AD6
:1008F000A96A461A95F83800400710D42020012E26
:100900008DF800000BDB374601236A462946404636
:1009100000F0C9FC002840F0B0807F1EF4D1D5F86B
:1009200014B0BBF1000F4F460DD017F8011BA8689B
:10093000C0470028A86000F0A080E86A401CBBF116
:10094000010BE862F1D130208DF800002F6A012FF1
:100950000ADB01236A462946404600F0A4FC002831
:1009600040F08B807F1EF4D1D5F818B0EF68BBF152
:10097000000F0CD017F8011BA868C0470028A8601A
:100980007BD0E86A401CBBF1010BE862F2D1302059
:100990008DF800006F6A012F09DB01236A462946A2
:1009A000404600F080FC002867D17F1EF5D1E86842
:1009B000A969D5F81CB00F18BBF1000F0CD017F8BF
:1009C000011BA868C0470028A86056D0E86A401CF0
:1009D000BBF1010BE862F2D130208DF80000AF6A64
:1009E000012F09DB01236A462946404600F05BFCE3
:1009F000002842D17F1EF5D195F8380040070DD56B
:100A00002020012E8DF8000008DB01236A462946CC
:100A1000404600F048FC80BB761EF6D100266E6191
:100A2000224668690DF10101484400F035FD68690E
:100A3000201868611498801C1490801E008800287B
:100A40007FF42CAF686B6969401A296A401AA9695A
:100A5000401A696A401AE969401AA96AA0EB010ABA
:100A600095F83800400710D4BAF1010F0DDB544659
:100A7000A8682021C047A86010B94FF0FF365DE09C
:100A8000E86A401C641EE862F2D16B694A46294656
:100A9000404600F008FC0028EFD12C6A012C0ADB4C
:100AA000A8683021C0470028A860E6D0E86A401C4A
:100AB000641EE862F4D1AB69EA682946404600F05A
:100AC000F2FB0028D9D16C6A012C0ADBA86830211E
:100AD000C0470028A860D0D0E86A401C641EE862C5
:100AE000F4D1E868A969EB690A182946404600F084
:100AF000DAFB0028C1D1AC6A012C0ADBA8683021DE
:100B0000C0470028A860B8D0E86A401C641EE862AC
:100B1000F4D195F8380040070ED5BAF1010F0BDB80
:100B2000A8682021C0470028A860A6D0E86A401C19
:100B3000BAF1010AE862F3D16E616E6304A88145DF
:100B40001CBF484600F0E4FC304615B0BDE8F08F0D
:100B50002DE9FA4E05460A462F696F2A08BF082478
:100B600005D041F02000782814BF0A2410243C2628
:100B7000D5E90001642A18BF692A81468A4605D151
:100B8000002903DAD9F100096AEB4A0ABAF1000F29
:100B900008BFB9F1000F0CD1286B50B9082C36D121
:100BA00095F83800000732D530203B2687F83B0007
:100BB0002DE0E31748465146224600F0E9FCA4FB2D
:100BC0000023A9EB02023032D2B2A6F1010B3A2A7D
:100BD0005E4603DB9DF80030513B9A180BF8072066
:100BE00081465FEA010A08BFB9F1000F03D0E86847
:100BF000F1198842DDD3082C09D195F83800000797
:100C000005D5F05D302802D0761E3020F055C6F1B3
:100C10003C00A861F119E960296B884208DA081ADA
:100C200028624FF6EF71288F08402887BDE8F38EC1
:100C300000290ED595F8381001F01401102908D1BB
:100C4000696B6A69891A2A6A891A0E1A012EA8BF65
:100C50002E62BDE8F38E00002DE9F24F04468EB0FF
:100C6000D4E90001CDE9020104AF9DF8380040F05D
:100C7000200BBBF1610F0AD0206B002848BF062073
:100C800004D408BFBBF1670F01D101202063616864
:100C9000C1F30A5040F2FF7290421CD1080304BF16
:100CA0002068002809D10320A0619DF83800613830
:100CB0001A2836D30FF2306108E00320A0619DF8B6
:100CC000380061381A2829D30FF21461E068032232
:100CD00000F0E2FBBEE1012816DA204600F0CFFC6E
:100CE000012811DB00250020BBF1610F20D1E16854
:100CF000302201F8012B4A1CE2609DF83820612A5D
:100D00000CBF782258220FE0626840F2FE3161F396
:100D10001E52451A62604FF0FF30E5E70FF2BC51FA
:100D2000D4E70FF2C051D1E70A706169891C616193
:100D300010B90026002584E1BBF1610F40F09880D6
:100D4000206B00284CBF2126461CD4E900ABDDE90E
:100D500002010022002300F0B3FC36B23ABF8BF050
:100D60000040CDE902A0CDE902AB06F101082D1F3C
:100D7000B8F1010F8DF810200DF1110736DBDDE918
:100D800002010022002300F0B3FC2FD21C2102A894
:100D900000F0C6FCDDE9020100F04CFDA8F10708F7
:100DA000B8F1010F814609DB00F070FD02460B46E9
:100DB000DDE9020100F082FDCDE90201F81D072105
:100DC00005E009F00F0200F8012D4FEA2919B9F1E9
:100DD000010F01DB491EF4D5491E5CBF002200F85B
:100DE000012DF9D5C71DB8F1010FC8DA0DF11100B9
:100DF000391AB142B8BF0E4636B230000DF11107B4
:100E00002FD4884206DA04A9411849780829A8BFD6
:100E10000F2100DA002104AA821800E0761E12F8E1
:100E20000139401E8B42F9D00F2904D104A9411881
:100E30004A78521C4A70002802D504AF761C2D1D3A
:100E400036B2701E0DD4C1190A783032D2B23A2AA5
:100E500003DB9DF838303A3B9A18401E01F801290F
:100E6000F2D5206B002840F1EC80701E2063E8E092
:100E7000DDE902010022002300F022FC3CBF81F0EA
:100E80000041CDE902012DB247F2975068434B492A
:100E9000DFF82C9190FBF1F52DB2C5F1070ABAF1FC
:100EA000010F90461CDBDDE902675FEACA7007D5D7
:100EB00042464B463046394600F0C0FD06460F46D6
:100EC0004046494642464B464FEA6A0A00F0B6FDA4
:100ED000BAF1000F80468946E7D1CDE9026724E0E8
:100EE000CAF1000A0026374F14E05FEACA7007D53E
:100EF00042464B463046394600F0A0FD06460F46B6
:100F00004046494642464B4600F098FD4FEA6A0A81
:100F100080468946BAF1000FE7D1DDE90201324689
:100F20003B4600F05DFECDE90201BBF1660F0CBF50
:100F300005F10A000620216BDFF88C904618142E6C
:100F4000A8BF132630208DF810000DF11107012ED7
:100F50003CDBDDE9020100F083FC07F1080104221B
:100F60000A23B0FBF3F303EB8307A0EB4700303019
:100F700001F8010C0A20B3FBF0F000EB8007A3EBB3
:100F800047033033521E01F8023DE9D1083E012EDD
:100F900001F10807DBDBDDE9020100F061FC00F094
:100FA0007FFC02460B46DDE9020100F087FC0022CF
:100FB0004B4600F043FDCDE90201CAE7A0860100DF
:100FC000000024400000F03F84D797410DF111004C
:100FD000381A0DF1110702E0401E6D1E7F1C397892
:100FE0003029F9D0BBF1660F02D12DB2691C04E0A3
:100FF000BBF1650F0CBF01210021226B8E1836B2A8
:10100000B042B8BF064636B231001AD4814204DA83
:10101000C85D3528A8BF392000DA3020CA19521E11
:1010200000E0761E12F80139491E8342F9D03928B2
:1010300002D1C85D401CC855002902D57F1E761C10
:101040006D1C2DB29DF83810009533B23A462046FB
:1010500000F003F80FB0BDE8F08F2DE9F04786B03F
:1010600006468A4690461D4600F003FF012D406A61
:10107000376B90F8009002DA01250FF270284AF0E1
:101080002000BDF93840662808BF641C12D06728CC
:1010900076D114F1040F79DBBC4277DA96F8380088
:1010A000641C000702D4BD42B8BF2F4624B23F1BC8
:1010B00048BF002724B2F068B169012C21DA4A1C2C
:1010C00030230B54012F03DA96F83810090702D5A4
:1010D00002F80090521CB261E742B8BF7C4224B2D1
:1010E0006142E7197162AF42B8BF3D46B3692DB2A4
:1010F000F5612A464146181800F0CEF9781BB06217
:10110000BAE00818A54216DA2A46414600F0C4F9AA
:10111000B1696918601B012FB161706203DA96F83A
:101120003800000705D5F06801F80090F069401C10
:10113000F061B762A0E02246414600F0ADF9B06927
:1011400020182D1B012F03DA96F83810090703D554
:10115000F16800F80190401C2DB2B061AF42B8BFF9
:101160003D46F068B3692DB22A4604EB0801181811
:1011700000F092F9B0692818B061781B70627BE0CA
:10118000BAF1610F14D14FF0700A16E0BD4204DAD3
:1011900096F83810090758BF2F467F1E48BF002712
:1011A000BAF1670F14BF4FF0450A4FF0650A04E02B
:1011B000BAF1410F08BF4FF0500AB169F0684A1CFC
:1011C000B261012F18F8013B0B5403DA96F838107E
:1011D000090715D5531CB36102F80090012F0FDBEE
:1011E0006D1E2DB2AF42B8BF3D462DB22A464146D4
:1011F000181800F051F9B0692818B061781B7062B6
:10120000F068B1690918200081F800A004D42B20EF
:10121000487001F1020804E02D224A7001F1020831
:101220006442002502AF08E00A22684600F03AFE58
:10123000019807F8010B6D1C009C21B20129F3DA1B
:10124000022D06DA4AF02000652804BF302008F895
:10125000010B4DB9302008F8010B07E06D1E02A804
:10126000285C303008F8010B012DF7DAF068B1691D
:101270000818A8EB0000F06196F8380000F01400A0
:1012800010280DD17069B1690818716A0818F169E0
:101290000818B16A0818716B8842BCBF081A30621E
:1012A00006B0BDE8F087F8B504460D4616461F4661
:1012B000002077B116F8011BA868A047A86030B1DC
:1012C000E86A401CE86200207F1EF3D1F2BD4FF0B7
:1012D000FF30F2BD00000000000000006E616E00F3
:1012E0004E414E00696E6600494E46003000F8B52A
:1012F00004460D4616461F4600F0E5FD3B463246C5
:101300002946204601B0BDE8F04000F0F2BD026879
:10131000531C0360117070470278C9B28A421AB137
:101320001CBF10F8012FF9E718BF0020704700001C
:1013300000F10103810704D010F8011B89B1810776
:10134000FAD10268B2F10131914311F0803F04BF3C
:1013500050F8042FF6E710F8011B11B110F8011B2B
:10136000FBE7C01A70470000C9B2830706D0521EBF
:1013700022D310F8013B9942F7D11FE0083A13D36A
:1013800002F1040241EA012141EA014150F8043B23
:10139000121F21BF4B40A3F1013C2CEA030C1CF0AF
:1013A000803FF3D0C9B2001F083210F8013B521E33
:1013B00028BF91EA030FF8D818BF0120401E7047DC
:1013C00080B500F080FD012002BD000070B505462B
:1013D00005F10F00C408C046C046E400A54232D261
:1013E000082C04D2082402E0083000F091F82248CA
:1013F000026811000CD1011D0A6802B31368A342F0
:1014000038BF111DF8D310E01D68A5420DD2191D7B
:101410000B68002BF8D11268011D00E0191D0B6844
:1014200093420CD01D68A542F8D361B10D682A68BB
:10143000A2F10803A3420AD26A680A600FE000F032
:101440007BFD0028D0D1C046C046002070BD631986
:101450000B60121B6E685E600B681A602C60096876
:1014600000291DBF4A68002A091D00210160C046ED
:10147000C04605F1080070BD0CF5002070B50446AB
:101480000D46164600F01FFD324629462046BDE8AF
:10149000704000F021BD000062B38B0708D0521EDF
:1014A00011F8013B00F8013B00F024808B07F6D1D6
:1014B000830740F0208000BF103A07D330B4B1E872
:1014C0003810103AA0E83810F9D230BC530724BFC6
:1014D000B1E80810A0E8081044BF51F8043B40F8F8
:1014E000043BD20724BF31F8022B20F8022B44BF63
:1014F0000B7803707047083A07D3B1E80810083A30
:1015000040F8043B40F804CBF7D25307E4E700006F
:1015100000B9704738B5A0F108042068082833D313
:1015200010F0070F30D1C046C0461848416809B1D5
:101530008C4203D26160446017E019464B680BB1DE
:10154000A342FAD30B685D18AC421BD3A54204D169
:101550002268D2180A600C4607E04A681AB123686C
:101560001B199A420ED362604C60616851B12268C7
:1015700013198B4206D1002303600868801820608D
:1015800048686060C046C04631BD00000CF50020D0
:101590001B4213D1094236D12AB18446B0FBF2F086
:1015A00002FB10C2704700F0DDBCFCD30022002318
:1015B00070470B000200002100207047904271EB41
:1015C000030CF6D370B5B1FA81F4B3FA83F52C1B92
:1015D000A340C4F1200532FA05F63343A2405FF080
:1015E0000046E64002E05B085FEA3202841A71EBD3
:1015F000030524BF204629467641F4D302000B00A0
:101600003000002170BD012ACFD970B5140C20D054
:10161000B1FA81F4B2FA82F5C4F120046419B4F18C
:101620002006D6D3B2405FF00044F440002502E02B
:1016300052085FEA3303C61A71EB020E24BF30462C
:10164000714664416D41F3D302000B002000290074
:1016500070BD0C46B1FBF2F102FB11452D0445EAC9
:101660001045B5FBF2F402FB145580B240EA054583
:10167000B5FBF2F002FB105240EA044070BD30B4FA
:10168000436803F0004201211B031B0B436004BFAE
:101690000368002B08D10DE00368DD0F45EA440420
:1016A00044605B000360491E4468E302F4D52303F1
:1016B0001B0B436043681A434260084630BC7047C6
:1016C0004FF4001C1CEB410F94BF1CEB430F09E0CF
:1016D00041EA030C50EA4C0C52EA0C0C03D299423A
:1016E00008BF9042704714BF8B428242704700008F
:1016F0004FF4001C1CEB410F94BF1CEB430F09E09F
:1017000041EA030C50EA4C0C52EA0C0C03D28B4217
:1017100008BF8242704714BF994290427047000050
:1017200070B504460D466068C0F30A5040F2FF7180
:10173000884207D16068000304BF2068002817D0E2
:10174000022070BD20B92046FFF799FF012866DA14
:10175000012D0FDB40F2FF71091A8D420AD3606838
:1017600000284CBF9FED2F0B9FED300B84ED000B3D
:10177000012070BD4142A942616806DA6FF31E5133
:10178000401941EA0050606040E0401E636845191E
:10179000012205F1350062F31F53352801F00041A5
:1017A000636003D361600020206070BD002015F1EC
:1017B0001F0F04DA206823600022203562606A422D
:1017C00012D0401E25688041C2F12003C0439D40D5
:1017D00045EAD07025686668D54006FA03F32B43C6
:1017E00023606368D340636062680A43B0F1004FCE
:1017F000626003D80DD12078C0070AD52068401C4C
:101800002060206828B96068401C60604FF0FF309D
:1018100070BD6068884204BF20680028F6D10020AF
:1018200070BD00BF000000000000F0FF00000000DD
:101830000000F07FF446400D40EAC120490006D286
:1018400000F014F8004248BF6FF00040604700F01D
:101850000DF84FF0004188428CBF08464042604777
:10186000400D40EAC120490080F00D8040F000406A
:10187000490DA1F58061491C05D4D1F11F0154BF68
:10188000C840C01770474FF000007047010040F19A
:101890000980F446404200F005F851F000416047ED
:1018A000010000BF09D0B0FA80F18840C91CC1F521
:1018B0008461090501EBD02140057047F0B44FF079
:1018C000004591EA030F44BF6B4000F04DBB00BFE1
:1018D000841A71EB030604D26E40001BB141121949
:1018E00073414FF4001C1CEB410F34BF7CEB4306EB
:1018F00084E00C0DA4EB1356362E7DDC012E43DC68
:1019000045EAC32343EA525312BFD20292025B0854
:10191000240545EAC12141EA5051D2EBC02099414A
:1019200025D407D1B0FA80F610FA06F164D0002071
:10193000203608E0B1FA81F6B140C6F1200220FA63
:1019400002F21143B0404FEAF474B4EB465434F061
:1019500001064FEA74040AD8D6F50016760D04F095
:101960000044F04061FA06F25040F1404840C00A9D
:1019700040EA415021F0004128BF5FEA500550F194
:10198000000044EBD12137E045EAC323DB0A45EAF6
:10199000C121C90AB6F120050EDD42EA0242120C4D
:1019A000C5F1200603FA06F6EB4042EA06056D4251
:1019B000984161F100010DE062FA06F5F2405540F0
:1019C00063FA06FC82EA0C02F3405A406D429041F1
:1019D00061EB030111F4801F05D1641E620502D082
:1019E0006D004041494121F48011430875F10043E5
:1019F00050F1000041EB0451F0BC70471CEB410F6B
:101A000015D223F0004352EA43060BD04FEA4C0CA8
:101A1000BCEB410F04D80C0D661E342EB7DDEBE78E
:101A2000801A994150EA410608BF0021E4E708BF47
:101A30001CEB430F28BF6FF00001DDE7B0B581EA72
:101A4000030C0CF0004C40F2FF7515EA11541DBF59
:101A500015EA1357AC42AF4239E0E41923EA455383
:101A600043F48013C90241F0004141EA505EC702CD
:101A70001100A7FB020200284FF00000EEFB01203E
:101A80004FF00001E3FB072118BF42F001024018AC
:101A900000214941E3FB0E01A4F580640F0302D24B
:101AA00052004041494154F101046CDD470872F194
:101AB000004250F1000051EB0451A1F580115CBFD0
:101AC00041EA0C01B0BD4CEA05510020B0BD05EA69
:101AD0001357AC4214BFAF4241E050EA410E1CBF65
:101AE00052EA430E02E061460020B0BD24423C446D
:101AF0001BD15FEA070EF6D0090302BF01460020A2
:101B0000AEF1140EB1FA81F7AEEB070401FA07FE4D
:101B10000C37C7F1200100FA07F7C8404EEA000E63
:101B200023EA455343F48013A2E733F00043B3FAAA
:101B300083F704BFB2FA82FE77440B3FE41BB7F190
:101B4000200E2FBF02FA0EF3BB40C7F1200E22FA7F
:101B50000EFE38BF43EA0E03BA40641C82E750EA27
:101B6000410E14BF52EA430E6FF000014FF400170C
:101B700017EB430F8ABF194617EB410FB5E74CEA45
:101B800005510020B0BDD4F10104B4F120070FDAF3
:101B9000C4F12007520828BF42F0010210FA07F5ED
:101BA00001FA07F7E1BF2A43E0403843E1400FE084
:101BB000352C98DCC7F1200452EA400220FA07F2E3
:101BC00018BF42F0010231FA07F0A1400A43002198
:101BD00072F1004250F1000051EB0C01B0BD000069
:101BE0002DE9F04140F2FF7581EA030C0CF0004C46
:101BF00015EA11541DBF15EA1357AC42AF42E9E094
:101C0000BC41C1F31301C3F31303801A994143F498
:101C1000801304D2641E4000494180185941C90212
:101C200041EA5051B1FBF3F603FB1611A2FB067516
:101C3000D7EBC020A94102D2761E80185941C902B3
:101C400041EA5051B1FBF3FE03FB1E11A2FB0E75DE
:101C5000D7EBC020A94103D2AEF1010E8018594143
:101C6000890241EA9051760546EA8E2EB1FBF3F6E1
:101C700003FB1611A2FB0675D7EB8020A94102D207
:101C8000761E80185941C90241EA50514EEA060EAB
:101C9000B1FBF3F603FB1611A2FB0675D7EBC020D0
:101CA000A94102D2761E80185941C90241EA505119
:101CB000B1FBF3F703FB1711A2FB0735D3EBC020F1
:101CC000A94167F100070CBF004247F0010766F326
:101CD000D5274FEA1E31B80814F5806414DDBD071E
:101CE00075F1004250EB0E5051EB045111F5801F7D
:101CF0005CBF41EA0C01BDE8F0814CF07F6141F02E
:101D0000E0410020BDE8F081BD076D0840EA0E50BB
:101D100041F48011D4F10104B4F120060ADAC4F1CF
:101D200020060200E04001FA06F3E1401843B24009
:101D300015430EE0342C14DCC6F1200445EA4005BE
:101D40006D0820FA06F2154321FA06F0A1400D4372
:101D5000002175F1004250F1000051EB0C01BDE88B
:101D6000F08100205FEA0C01BDE8F081CFB9921844
:101D70005B41B3FA83F704BFB2FA82F6BF190B3F97
:101D8000B7F120062FBF02FA06F3BB40C7F12006C9
:101D900022FA06F638BF3343BA401CB1E419641E78
:101DA0002FE77F4231F00041B1FA81F404BFB0FA6D
:101DB00080F6A4190B3CB4F120062FBF00FA06F1FF
:101DC000A140C4F1200620FA06F638BF3143A040F6
:101DD0003C1B16E7AC421ABF05EA1357AF4214E0AA
:101DE00050EA41061CBF52EA4306BFE750EA4107EA
:101DF000304661461CBF41EA0551BDE8F08152EA18
:101E0000430C08BFC143BDE8F08100204FF4001629
:101E100016EB410F98BF16EB430F08BF16EB410FAF
:101E200024BFC14305E016EB430F0CBF61464CEAEB
:101E30000551BDE8F081000080B5134800F0FEF8C0
:101E40000FF24C020FF244010160426241600FF256
:101E50004402826381600FF24402C160016141610A
:101E600081618162C16201634163C2630164416453
:101E700001BD10B5044800F0E1F80446206808B937
:101E8000FFF7DAFF204610BDB80000200000000078
:101E90002E00000066616C73650000007472756549
:101EA0000000000091FBF2F303FB1211C0E90031C6
:101EB0007047000010B50446DFF8180000F0BEF8C7
:101EC00050F8240010BD80B5DFF8080000F0B6F827
:101ED000806902BD4C00002030B430B90FF24800D8
:101EE000D0E90045C2E900451BE00170012030BC8B
:101EF000704730B431B90FF23800D0E90045C3E97A
:101F000000450EE01AB930BC6FF00100704708B10F
:101F10000A7802800978481E804130BCC043C00F57
:101F20007047002030BC7047000000000000000037
:101F300000000000000000000749086808B1002008
:101F400070470648C008C00008600549C908C900B4
:101F5000091A0160704700BF20F500204F050020DE
:101F60004807002070470000841A71EB030603D273
:101F7000001BB141121973414FF4001C1CEB410FBF
:101F800034BF7CEB430443E00C0DA4EB1356352E19
:101F900050DC45EAC323DB0A45EAC121C912B6F188
:101FA00020050DDD63FA05F6EB4086EA03051242D3
:101FB00018BF45F00105C01851F100010CD213E023
:101FC00062FA06F5F2405540F3415A40B340F340FF
:101FD0005A408018594107D349085FEA30005FEA48
:101FE000350528BF45F0010501F58011420875F15E
:101FF000004250F1000041EB0451F0BC4FF4001CD2
:102000001CEB410F38BF70470020090D09057047D0
:102010001CEB410F10D252EA43060BD0BCEB410F30
:1020200005D80C0DAB43661E342EB5DD02E0AB4384
:1020300080185941F0BC7047F0BC704770470000F1
:1020400010B50400002C01D1012033E0A069002864
:10205000FFD194F83900002805D1002084F8380019
:10206000200000F0E5FB242084F839002068C068D7
:1020700030F400502168C860200000F039FA206870
:10208000006930F49040216808612068406930F0B0
:102090002A00216848612068C06850F40050216817
:1020A000C8600020E063202084F83900202084F8F4
:1020B0003A00002010BD2DE9F04182B004000D006F
:1020C00016001F005FF0000894F8390020285DD149
:1020D000002D02D0B6B2002E01D1012057E094F9B4
:1020E0003800012801D1022051E0012084F8380095
:1020F0000020E063212084F8390000F0A8FC80462D
:10210000A684E68403E02878216848606D1CE08C92
:10211000002828D0E08C401EE084A068B0F5805FE5
:1021200016D10097434600228021200000F0FCF8E1
:10213000002801D003202AE02888C005C00D2168AE
:1021400048602069002801D1AD1CE0E76D1CDEE786
:102150000097434600228021200000F0E5F8002887
:10216000D1D0032013E000974346002240212000F5
:1021700000F0DAF8002801D0032008E0202084F8DD
:102180003900002084F83800002000E00220BDE87B
:10219000F68190F83A30202B28D1002902D092B253
:1021A000002A01D1012022E090F93830012B01D121
:1021B00002201CE0012380F8383081628285C285CC
:1021C0000021C163222180F83A10002180F83810E4
:1021D0000168496951F00101026851610168C968EB
:1021E00051F490710068C160002000E00220704747
:1021F00038B50400206800682168C96822685269FF
:102200000023002310F00F03002B07D1850605D50E
:102210008D0603D5200000F01EF982E0002B70D05F
:10222000D30702D411F4907F6BD010F00103DBB21E
:10223000002B05D0CB0503D5E36B53F00103E3631B
:10224000430708D512F00103DBB2002B03D0E36B88
:1022500053F00203E363830708D512F00103DBB2F6
:10226000002B03D0E36B53F00403E363030708D5AB
:1022700012F00102D2B2002A03D0E26B52F008023F
:10228000E263E26B002A3BD0800604D5880602D5C3
:10229000200000F0E0F820684069800910F0010398
:1022A000E06B000701D4002B25D0200000F074F86B
:1022B0002068406940061AD52068406930F0400027
:1022C00021684861606B00280DD00FF2F100616B4E
:1022D0000865606B00F0D4FB002811D0606B616B67
:1022E000096D88470CE0200000F01DF808E0200090
:1022F00000F019F804E0200000F015F80020E06379
:102300000FE0020605D50A0603D5200000F060F8AC
:1023100007E0400605D5480603D5200000F08DF8FB
:10232000FFE731BD704770472DE9F04104000D0013
:1023300016001F00DDF81880206800682840A842B9
:1023400001D1012000E0002076B2B04221D118F185
:10235000010FF1D0B8F1000F04D000F078FBC01BE2
:102360008045E9D22068C06830F4D0702168C86028
:10237000206840694008400021684861202084F8B6
:102380003900202084F83A00002084F83800032027
:1023900000E00020BDE8F0810168C96831F4907167
:1023A0000268D160016849694908490002685161C1
:1023B000202180F83A1070470000000080B5806B43
:1023C0000021C1850021C184FFF7ADFF01BD0000E0
:1023D00090F8391021292ED18168B1F5805F10D194
:1023E000016A0988C905C90D02685160016900299F
:1023F00003D1016A891C016209E0016A491C01627A
:1024000005E0016A4A1C0262097802685160C18CC9
:10241000491EC18489B200290BD10168C96831F015
:1024200080010268D1600168C96851F0400100680C
:10243000C160002000E00220704780B50168C968D3
:1024400031F040010268D160202180F83910FFF797
:1024500069FF002002BD80B590F83A10222945D1CD
:102460008168B1F5805F14D1816A0269002A08D1C0
:1024700002685268D205D20D0A80816A891C816285
:1024800019E002685268D2B20A80816A491C8162EE
:1024900011E00169002906D1816A4A1C8262026842
:1024A00052680A7007E0816A4A1C826202685268B8
:1024B00012F07F020A70C18D491EC18589B20029C0
:1024C00012D10168C96831F490710268D160016865
:1024D00049694908490002685161202180F83A1091
:1024E00000F0ABFC002002E0002000E0022002BD72
:1024F0002DE9F041040000202068006930F44050CC
:10250000E1680843216808612068C068BB49084049
:10251000A1682269114362691143E26911430843CA
:102520002168C8602068406930F44070A1690843A0
:1025300021684861E069B0F5004F40F0B080206844
:10254000AF49884203D02068AE49884253D101F098
:1025500035F8804601F032F8060001F02FF8070048
:1025600001F02CF8050001F029F8192101FB08F110
:1025700062685200B1FBF2F16422B1FBF2F1192260
:1025800002FB06F263685B00B2FBF3F2192303FB64
:1025900007F366687600B3FBF6F36426B3FBF6F345
:1025A000642606FB1322D20032326423B2FBF3F21C
:1025B00012F0F802520012EB0111192202FB05F28F
:1025C00063685B00B2FBF3F21923584363685B0056
:1025D000B0FBF3F06423B0FBF3F0642303FB1020A3
:1025E000C00032306422B0FBF2F010F00700401857
:1025F0002168886000E100F0D1FF804600F0CEFF46
:10260000060000F0CBFF070000F0C8FF050000F057
:10261000C5FF192101FB08F162685200B1FBF2F11C
:102620006422B1FBF2F1192202FB06F263685B003F
:10263000B2FBF3F2192303FB07F366687600B3FBE2
:10264000F6F36426B3FBF6F3642606FB1322D200EE
:1026500032326423B2FBF3F212F0F802520012EBB2
:102660000111192202FB05F263685B00B2FBF3F271
:102670001923584363685B00B0FBF3F06423B0FB9D
:10268000F3F0642303FB1020C00032306422B0FB5F
:10269000F2F010F00700401821688860ACE0206874
:1026A0005749884203D020685649884252D100F0E9
:1026B00085FF804600F082FF060000F07FFF0700E4
:1026C00000F07CFF050000F079FF192101FB08F103
:1026D00062689200B1FBF2F16422B1FBF2F11922BF
:1026E00002FB06F263689B00B2FBF3F2192303FBC3
:1026F00007F36668B600B3FBF6F36426B3FBF6F3A4
:10270000642606FB1322120132326423B2FBF3F279
:1027100012F0F00212EB0111192202FB05F26368BC
:102720009B00B2FBF3F21923584363689B00B0FB94
:10273000F3F06423B0FBF3F0642303FB10200001EB
:1027400032306422B0FBF2F010F00F004018216824
:10275000886051E000F022FF804600F01FFF060075
:1027600000F01CFF070000F019FF050000F016FF45
:10277000192101FB08F162689200B1FBF2F16422B9
:10278000B1FBF2F1192202FB06F263689B00B2FB77
:10279000F3F2192303FB07F36668B600B3FBF6F305
:1027A0006426B3FBF6F3642606FB132212013232D1
:1027B0006423B2FBF3F212F0F00212EB01111922C2
:1027C00002FB05F263689B00B2FBF3F21923584346
:1027D00063689B00B0FBF3F06423B0FBF3F0642369
:1027E00003FB1020000132306422B0FBF2F010F045
:1027F0000F00401821688860BDE8F081F369FFFF91
:10280000001001400014014080B502220121252062
:1028100000F070FF252000F07EFF01BD80B503228F
:102820000121352000F066FF352000F074FF01BD66
:1028300000B587B00168614A914222D10020009022
:102840005F48006850F010005D4908605C4800680F
:1028500010F010000090009840200190022002909B
:1028600001200390032004900720059001A95548FA
:1028700000F082FF8020019001A9524800F07CFF07
:1028800034E000685049884230D1002000904F4821
:10289000006850F004004D4908604C48006810F092
:1028A000040000900098002000904848006850F014
:1028B0000800464908604548006810F0080000908C
:1028C00000984FF480500190022002900120039064
:1028D000032004900820059001A93D4800F04CFF1A
:1028E0000420019001A93B4800F046FF07B000BD5D
:1028F00080B5002000903848006850F480103649B8
:1029000008603548006810F48010009000982E4848
:10291000324908605FF4E1303049486000202F49B7
:10292000886000202D49C86000202C4908610C20D7
:102930002A49486100202949886100202749C86147
:102940002648FFF77DFBFFF769FF01BD80B500203A
:1029500000901E48006850F002001C4908601B48A7
:10296000006810F002000090009814481C490860AC
:102970005FF4E1301A49486000201949886000205E
:102980001749C8600020164908610C2014494861A5
:1029900000201349886100201149C8611048FFF7E1
:1029A0004FFBFFF731FF01BD01B54FF6FF73012269
:1029B00069460A48FFF77FFB009802BD00100140FE
:1029C00044380240000402400050004030380240C9
:1029D00000080240000C02404038024098F40020F9
:1029E00058F4002080B52348006850F40070214955
:1029F00008602048006850F480601E4908601D4847
:102A0000006850F480701B490860032000F06EFEDF
:102A1000002000F004F800F0C3FF002002BD10B554
:102A20000400154800684FF47A71B0FBF1F000F033
:102A300077FE002221005FF0FF3000F05BFE0020F7
:102A400010BD0E480068401C0C49086070470B48D8
:102A50000068704731B5FFF7FAFF0400009D15F1DB
:102A6000010F00D06D1CFFF7F2FF001BA842FAD344
:102A700031BD0000003C02400000002014F50020A1
:102A800090F93510022903D080214165012009E029
:102A9000052180F835100168096849084900006877
:102AA000016000207047000000B593B00020009046
:102AB000DFF81404006850F08050DFF80C14086050
:102AC000DFF80404006810F08050009000980020A7
:102AD0000090DFF8F803006850F48040DFF8EC1352
:102AE0000860DFF8E803006810F480400090009868
:102AF000012006905FF48030079002200C905FF474
:102B000080000D9008200E904FF4A8700F900220C6
:102B100010900720119006A800F026FA0F200190CF
:102B200002200290002003904FF4A05004904FF434
:102B300080500590052101A800F00AFC00F0E1FC9E
:102B400000F029FD4FF47A71B0FBF1F000F0E8FDE0
:102B5000042000F0E9FD002200215FF0FF3000F0CA
:102B6000C9FD13B000BD00B59DB0DFF86413DFF8F8
:102B7000640300F04DFF6846702100F05BFF0DA17B
:102B8000684600F05AFFDFF84813684600F055FF2A
:102B900009A1684600F051FF6846FEF7C9FB4FF4F3
:102BA0007A73020092B26946DFF82C03FFF783FACA
:102BB0001DB000BD3C0000003E0000002DE9F041CA
:102BC00004000D001600002708E030383FB2022153
:102BD00097FBF1F150EA08104855BF1C3FB2B742CD
:102BE00019DA3FB2385700F036FF80463FB2381945
:102BF00090F9010000F02FFF5FFA88F8B8F13A0F62
:102C000002DBB8F1370801E0B8F13008C0B23A2869
:102C1000DBDB3738DAE7BDE8F08100B585B0FFF7D8
:102C2000E1FEFFF741FFFFF791FE00F021FFFFF704
:102C30005FFE0122A949A848FFF7ABFA0122A74984
:102C4000A748FFF7A6FAA74800F0E2FEA64800F062
:102C5000DFFEA6480088A649088002A800210022BD
:102C600006C008380020ADF8040003E09F48008843
:102C70009F4908809F480078002800F08C809E487B
:102C80000078002800F08780984801889B4800F071
:102C9000BFFE9B4800F0BCFE9A498D4800F0D0FF73
:102CA000FFF761FF91480188974801F00BF89749B9
:102CB000088096480188964800F0AAFE934802884A
:102CC0009449834800F0BCFFFFF74DFF0A224FF400
:102CD000005102A800F069FF9DF80B0000909DF8DC
:102CE0000A309DF809209DF808108B4800F090FEEE
:102CF00000208DF80C00042201A902A8FFF75EFF56
:102D00009DF805009DF804104FF48072514351FA6C
:102D100080F08249088081480188814800F078FE6F
:102D20007E4802887F496A4800F08AFFFFF71BFF50
:102D30007A48008875490988884218D17A4800F095
:102D400067FE6A4802887049784800F0FBFF7848BF
:102D500000F05EFE774800F05BFE77495C4800F0CB
:102D60006FFFFFF700FF0020624908700FE0734813
:102D700000F04EFE7249564800F062FFFFF7F3FE86
:102D80004FF47A7301224FA15348FFF794F9674833
:102D900001F012F822E05848007800280AD169486A
:102DA00000780A2806DB0120674908700020654981
:102DB000087013E05048007800280FD14FF47A7063
:102DC000FFF748FE5F480078401C5E4908705E4887
:102DD00002785C4801785D4800F01AFE5A48007895
:102DE000002808D05A4800F013FE0020554908700A
:102DF0004E4800F0E1FF3E4800883C49098888427F
:102E000004D03A48008800287FF430AF3748008863
:102E1000002803D10020374908702BE74FF47A705F
:102E2000FFF718FE324800883049098888427FF44D
:102E300021AF01202F4908701CE710B5040020685D
:102E4000444988422CD1254800782F49274A1288C6
:102E5000505426480088401C2449088001221F49FC
:102E60001D48FFF796F91D480078262818D11F48FD
:102E700000880A2814DA38480078002810D017484B
:102E80000178364800F0C4FD01201B49087000207D
:102E90001849087000201549088000202E49087044
:102EA00020682F4988420CD10C4801782D4800F049
:102EB000AFFD012024490870012208490848FFF7A6
:102EC00068F910BD29000000403802400070004041
:102ED0004CF300203C4C000858F4002026F500205C
:102EE00098F40020844800087849000848E300204E
:102EF00024F5002027F500202AF50020884B000843
:102F0000B04B0008604A000848070020400100203C
:102F1000C04B0008A04A00089C4B0008420100205A
:102F2000D04B0008804A0008E04B00080000010870
:102F3000384B0008F04B0008A8490008BC4A0008BC
:102F4000F849000828F5002029F50020484C000821
:102F5000004C00080010014044010020D84A00083D
:102F600000500040544C000838B50400002520787B
:102F7000C0076FD5DFF86406006810F00C00042865
:102F80000BD0DFF85806006810F00C0008280ED1AE
:102F9000DFF84C060068400209D5DFF848060068F3
:102FA000800357D56068002854D10120CFE16068C4
:102FB000B0F5803F08D1DFF82C06006850F480306F
:102FC000DFF82016086024E06068B0F5A02F10D16B
:102FD000DFF81006006850F48020DFF8081608605B
:102FE000DFF80006006850F48030DFF8F81508605C
:102FF0000FE0DFF8F005006830F48030DFF8E4150A
:103000000860DFF8E005006830F48020DFF8D415B0
:103010000860606800280ED0FFF719FD0500DFF892
:10302000C4050068800315D4FFF711FD401B652817
:10303000F5D303208BE1FFF70AFD0500DFF8A405B7
:103040000068800306D5FFF702FD401B6528F5D315
:1030500003207CE1207880072BD5DFF8800500680D
:1030600010F00C0F0BD0DFF87405006810F00C00A6
:10307000082837D1DFF868050068400232D4DFF84D
:1030800064050068800704D5E068012801D00120AC
:103090005DE1DFF8500500685FF0F851B1FA81F1A9
:1030A00030F0F800226912FA01F10843DFF8341514
:1030B00008602078000762D5606900284CD00120A4
:1030C000DFF824150860FFF7C2FC0500DFF81C05D7
:1030D0000068800753D4FFF7BAFC401B0328F5D3E0
:1030E000032034E1E068002823D00120DFF8001538
:1030F0000860FFF7ACFC0500DFF8E8040068800713
:1031000006D4FFF7A4FC401B0328F5D303201EE1DF
:10311000DFF8D00400685FF0F851B1FA81F130F0C7
:10312000F800226912FA01F10843DFF8B8140860C8
:10313000BFE70020DFF8B8140860FFF788FC05003F
:10314000DFF8A00400688007B3D5FFF780FC401BC0
:103150000328F5D30320FAE00020DFF88C14086080
:10316000FFF775FC0500DFF884040068800706D5CA
:10317000FFF76DFC401B0328F5D30320E7E0207820
:1031800040077CD500200090DFF86804006850F00C
:103190008050DFF860140860DFF85804006810F011
:1031A000805000900098DFF85004006850F4807060
:1031B000DFF844140860FFF74AFC0500DFF8380424
:1031C0000068C00506D4FFF742FC401B0328F5D376
:1031D0000320BCE0A068012808D1DFF820040068C3
:1031E00050F00100DFF81414086023E0A0680528FF
:1031F00010D1DFF80804006850F00400DFF8FC1379
:103200000860DFF8F803006850F00100DFF8EC1305
:1032100008600FE0DFF8E403006840084000DFF8D2
:10322000DC130860DFF8D403006830F00400DFF836
:10323000CC130860A068002810D0FFF708FC050038
:10324000DFF8B8030068800719D4FFF700FC401BC3
:1032500041F289318842F3D3032078E0FFF7F7FB8E
:103260000500DFF898030068800708D5FFF7EFFB3B
:10327000401B41F289318842F3D3032067E0A06903
:10328000002863D0DFF85403006810F00C00082811
:103290005AD0A069022844D10020DFF864130860E6
:1032A000FFF7D5FB0500DFF83C030068800106D579
:1032B000FFF7CDFB401B0328F5D3032047E0DFF8E1
:1032C0004403B0FA80F14FF44040B0FA80F2F020AD
:1032D000B0FA80F0E369256A2B43656A15FA01F1BB
:1032E0001943A36A5B085B1E13FA02F21143E26AF8
:1032F00012FA00F00843DFF8E81208600120DFF856
:1033000000130860FFF7A3FB0500DFF8D802006890
:1033100080011BD4FFF79BFB401B0328F5D3032040
:1033200015E00020DFF8D8120860FFF790FB0500D9
:10333000DFF8B0020068800108D5FFF788FB401B6A
:103340000328F5D3032002E0012000E0002032BD75
:1033500070B504000D000026DFF8AC02006810F024
:103360000F00A8420BD2DFF8A0020570DFF8980228
:10337000006810F00F00A84201D00120C0E02078C2
:10338000800709D5DFF85402006830F0F000A1682A
:103390000843DFF8481208602078C00772D56068DB
:1033A000012806D1DFF83C020068800315D4012013
:1033B000A6E06068022802D06068032806D1DFF822
:1033C00024020068800108D4012099E0DFF814028B
:1033D0000068800701D4012092E0DFF80002006855
:1033E0008008800061680843DFF8F0110860FFF78B
:1033F0002EFB0600606801280FD1DFF8E0010068AD
:1034000010F00C0004283DD0FFF721FB801B41F297
:1034100089318842F1D3032072E0606802280FD11D
:10342000DFF8B801006810F00C0008282AD0FFF778
:103430000EFB801B41F289318842F1D303205FE00B
:10344000606803280FD1DFF89401006810F00C00C9
:103450000C2817D0FFF7FBFA801B41F28931884214
:10346000F1D303204CE0DFF87401006810F00C0F7A
:1034700008D0FFF7ECFA801B41F289318842F2D381
:1034800003203DE0DFF88001006810F00F00854266
:103490000BD2DFF874010570DFF86C01006810F0E2
:1034A0000F00A84201D001202AE02078400707D56C
:1034B0004A48006830F4E050E16808434749086032
:1034C0002078000708D54548006830F4604021693D
:1034D00050EAC1004149086000F017F83F49096807
:1034E0005FF07062B2FA82F2484B11F0F001D14005
:1034F000C95CC840464908600020FFF790FA0020E8
:1035000070BD012043490860704700200020002161
:1035100000203248006810F00C00002804D0042875
:1035200004D0082804D034E03B4833E03B4831E085
:103530002B48006810F03F002949096849020DD561
:1035400027490968354AB2FBF0F047F6C0721140CE
:103550002C4AB2FA82F2D14048430CE02049096873
:103560002D4AB2FBF0F047F6C0721140254AB2FA7C
:1035700082F2D14048431A49096811F440314FF4AE
:103580004042B2FA82F2D140491C4900B0FBF1F04E
:1035900000E0214870471E480068704780B5FFF77B
:1035A000FAFF0E4909685FF46012B2FA82F21C4B0E
:1035B00011F4E051D140C95CC84002BD80B5FFF7AD
:1035C000EAFF064909685FF4E022B2FA82F2144B7E
:1035D00011F46041D140C95CC84002BD08380240C6
:1035E0000438024000380240800E474274380240DE
:1035F00000004742403802400070004070380240EE
:10360000600047420000FE03003C0240104C0008EE
:10361000000000204C0047420024F40000127A0011
:10362000784C000810F00701484800684FF6FF0288
:103630001040474A52EA0121084344490860704754
:1036400042480068C0F302207047012110F01F02B9
:103650009140404A40B2400942F82010704740B2C1
:10366000002808D509013C4A40B210F00F0080182C
:1036700000F8041C03E00901384A40B28154704745
:1036800010B410F00700D0F10703052B01D3042379
:1036900001E0D0F10703041D072C01D2002000E057
:1036A000C01E012414FA03F35B1E1940814001235C
:1036B00013FA00F0401E1040084310BC704780B55C
:1036C000411EB1F1807F01D301200EE0401E24494C
:1036D00008600F215FF0FF30FFF7C1FF0020214994
:1036E0000860072020490860002002BD80B5FFF770
:1036F00099FF01BD70B504000D0016000020FFF712
:103700009FFF32002900FFF7BBFF0100200040B2FD
:10371000FFF7A5FF70BD80B540B2FFF796FF01BD72
:1037200080B5FFF7CCFF02BD042806D10E48006823
:1037300050F004000C49086005E00B48006830F0C8
:103740000400094908607047000000000CED00E02B
:103750000000FA0500E100E018ED00E000E400E000
:1037600014E000E018E000E010E000E080B500F0B8
:1037700001F801BD7047000078B400240023002444
:10378000002237E00825EDB212F00306F6B2B600CB
:10379000B5402C43DFF8D051960845F82640DFF8B5
:1037A000CC4124689C434D68ED0300D51C43DFF8F1
:1037B000BC512C60DFF8B84124689C434D68AD03D0
:1037C00000D51C43DFF8A8512C60DFF8A84124681D
:1037D0009C434D68ED0200D51C43DFF898512C60E6
:1037E000654C24689C434D68AD0200D51C43624B78
:1037F0001C60521C102A80F0AA80012313FA02F4E4
:103800000B682340A342F4D14C68022C02D04C68D0
:10381000122C15D1D40810EB8404246A0F2512F061
:103820000706F6B2B600B540AC430D6912F00706C4
:10383000F6B2B600B5402C43D50810EB85052C62D6
:10384000046803251600F6B27600B540AC430D7946
:1038500015F003051600F6B27600B5402C4304605F
:103860004C68012C08D04C68022C05D04C68112CF7
:1038700002D04C68122C17D1846803251600F6B2CA
:103880007600B540AC43CD681600F6B27600B54080
:103890002C438460446801259540AC434D68C5F3D2
:1038A000001595402C434460C46803251600F6B209
:1038B0007600B540AC438D681600F6B27600B54090
:1038C0002C43C4604C68E40093D5002400942B4C36
:1038D000246854F48044294D2C60284C246814F446
:1038E00080440094009C204C950854F825400F25F6
:1038F00012F00306F6B2B600B540AC43204DA84224
:1039000001D100253FE71F4DA84201D101253AE72B
:103910001D4DA84201D1022535E71C4DA84201D119
:10392000032530E71A4DA84201D104252BE7194D94
:10393000A84201D1052526E7174DA84201D1062549
:1039400021E7164DA8427FF41DAF07251BE771BC88
:10395000704752B2002A02D089B2816102E089B276
:10396000090481617047000008380140003C0140B3
:10397000043C0140083C01400C3C014044380240FA
:10398000000002400004024000080240000C024017
:10399000001002400014024000180240001C0240C7
:1039A00080B50320FFF7A2FE002200217FF00B006C
:1039B000FFF7A0FE002200217FF00A00FFF79AFE29
:1039C000002200217FF00900FFF794FE0022002171
:1039D0007FF00400FFF78EFE002200217FF003003D
:1039E000FFF788FE002200217FF00100FFF782FE32
:1039F000002200215FF0FF30FFF77CFE0022002153
:103A00000520FFF777FE0520FFF785FE01BD0000CA
:103A10000EB400B582B003A9009102466B460121A5
:103A2000034878440A30FCF7AFFB06BC5DF810FB96
:103A300021110000002200F0D9B9024600E0521C1A
:103A40001378002BFBD111F8013B137012F8013BE6
:103A5000002BF8D1704710B504460120FEF72AFA72
:103A6000A4F161001A2838BF203C204610BD000098
:103A700080B5DFF8B401DFF8B41108604FF482704C
:103A8000DFF8A81148600020DFF8A011886000204E
:103A9000DFF89811C8600220DFF89011086101205A
:103AA000DFF8881148614FF40070DFF880118861F9
:103AB0000820DFF87811C8610020DFF87011086273
:103AC0000020DFF8681148620020DFF8601188628A
:103AD0000A20DFF85811C862DFF8500100F0A0F9A1
:103AE00001BD00B587B00068DFF83C1188425AD1AB
:103AF00000200090DFF83801006850F48040DFF8C3
:103B000030110860DFF82801006810F48040009050
:103B1000009800200090DFF81C01006850F48070CD
:103B2000DFF810110860DFF80C01006810F48070F5
:103B30000090009800200090DFF8F800006850F036
:103B40000400DFF8F0100860DFF8E800006810F00B
:103B50000400009000980A200190022002900220A8
:103B600004900520059001A9DFF8CC00FFF704FEC2
:103B7000042001900220029000200390052005906F
:103B800001A92E48FFF7F8FD012201212A48FFF77D
:103B9000E0FE01200190012002900520059001A97E
:103BA0002548FFF7E9FD07B000BD70B504000D0022
:103BB0001600002201212048FFF7CBFE032000F071
:103BC0001DF8280CC0B200F019F8280AC0B200F0A5
:103BD00015F82800C0B200F011F804E0FF2000F052
:103BE0000DF82070641C3000461E80B20028F5D10C
:103BF000012201211048FFF7ACFE70BD00B583B073
:103C00008DF805007FF07F400090012301AA0DF19F
:103C10000501064800F04BF9002802D0FF208DF87E
:103C200004009DF804000EBD00380040B0F30020F1
:103C30004038024030380240002002400008024074
:103C40000CB41CB5044604A801900A46009401ABCC
:103C50006946074878441830FCF796FA009A002124
:103C6000117000285CBF0098001B16BC5DF80CFBAF
:103C70009FD6FFFF30B4002300220AE00C78012514
:103C800095402C4204D00124D2F10705AC402343D7
:103C9000521C082AF2DB037030BC704730B400239A
:103CA00000220AE00C88012595402C4204D0012412
:103CB000D2F10F05AC402343521C102AF2DB0380E3
:103CC00030BC704770B582B004000D004FF6FF7035
:103CD000ADF8000048F2050600208DF8020028002B
:103CE000451E002826D020788DF80200641C0DF1B6
:103CF00002010DF10200FFF7BDFFBDF800009DF8C5
:103D0000021090EA0120ADF80000002005E0BDF8A7
:103D100000104900ADF80010401C0828DFDABDF89B
:103D200000100904F3D5BDF8001096EA4101ADF882
:103D30000010F1E769466846FFF7B0FFBDF80000E4
:103D400076BD00002DE9F0410700884614000025EB
:103D500000261FE098F80100000298F8001050FAC1
:103D600081F018F102081D49ADB221F815006D1C53
:103D7000ADB2B5F5806F0CD139001948FFF748FE98
:103D800000254FF480621549380000F016FA17F547
:103D90000067B61CB6B2A642DCD3ADB2002D05D08A
:103DA0002A0092B20D49380000F007FABDE8F08110
:103DB00080F308887047704738B5040020680949C7
:103DC0000840B0F1005F07D10748FFF721FE6568A2
:103DD0002068FFF7EDFFA84731BD00004CE300204D
:103DE000744B00080000F02F304C000800B500BFF5
:103DF000130096469446103928BFA0E80C50FAD814
:103E00005FEA417C28BF0CC048BF40F8042BC907BB
:103E100028BF20F8022B48BF00F8012B00BD00008E
:103E200010B50400002C01D101203FE0606A002899
:103E30000020A06294F95100002805D1002084F8E8
:103E400050002000FFF74DFE022084F8510020684A
:103E5000006830F04000216808606068A16808438D
:103E6000E16808432169084361690843A16911F4C5
:103E700000710843E1690843216A0843A16A0843C5
:103E800021680860A069000C10F00400616A084312
:103E9000216848602068C06930F400602168C8610A
:103EA00000206065012084F85100002010BD2DE93C
:103EB000F04782B004000E0017009A46002000214F
:103EC0005FF000095FF00108002594F95000012817
:103ED00001D10220F3E0012084F85000FEF7B7FD85
:103EE000814694F951006168012809D0B1F5827FBB
:103EF00004D1A168002901D1042801D00225D6E00F
:103F0000002E06D0002F04D01FFA8AFABAF1000F53
:103F100001D10125CBE094F95100012802D10520FF
:103F200084F8510000206065A763A4F83EA0A4F8BF
:103F30003CA02663A4F836A0A4F834A00020206496
:103F40000020606420680068400605D4206800688E
:103F500050F0400021680860DDF828A0E068B0F566
:103F6000006F40D16068002802D0E08E012806D1A1
:103F700030882168C860B61CE08E401EE086E08E66
:103F8000002802D1E08F00286ED0B8F1000F0FD0CA
:103F9000E08E00280CD020688068800708D5308823
:103FA0002168C860B61CE08E401EE0865FF0000805
:103FB000E08F00280CD020688068C00708D52068F2
:103FC000C0683880BF1CE08F401EE0875FF00108AA
:103FD0001AF1010FD3D0FEF73AFDB0EB09005045BE
:103FE000CDD3032563E06068002802D0E08E01286D
:103FF00006D1307821680873761CE08E401EE0867A
:10400000E08E002802D1E08F00282DD0B8F1000FFB
:104010000FD0E08E00280CD020688068800708D57B
:10402000307821680873761CE08E401EE0865FF0D1
:104030000008E08F00280CD020688068C00708D5F1
:104040002068C06838707F1CE08F401EE0875FF0FA
:1040500001081AF1010FD3D0FEF7F9FCB0EB09000B
:104060005045CDD3032522E0CDF8009053460122E0
:104070000221200000F025F8002801D0032516E0D9
:104080004A465146200000F06DF8002803D0012573
:10409000202060650BE0A068002808D10020009077
:1040A0002068C06800902068806800900098012017
:1040B00084F85100002084F85000280040B2BDE888
:1040C000F6872DE9F04104000D0016001F00DDF811
:1040D0001880206880682840A84201D1012000E0B3
:1040E0000020B0423BD017F1010FF2D0002F05D0D5
:1040F000FEF7ADFCB0EB0800B842EAD32068406898
:1041000030F0E000216848606068B0F5827F0DD132
:10411000A068B0F5004F03D0A068B0F5806F05D15E
:104120002068006830F0400021680860A06AB0F59F
:10413000005F0CD1206800684DF6FF7108402168CF
:1041400008602068006850F4005021680860012071
:1041500084F85100002084F85000032000E0002083
:10416000BDE8F08110B582B0040000920B0000227F
:1041700080212000FFF7A5FF002805D0606D50F0DA
:1041800020006065032000E0002016BD0088704715
:10419000F8B507000C001500002609E0B6B234F8A7
:1041A000162000233900012000F028F9BF1C761CDE
:1041B000B6B2ADB2AE42F1D3F1BD2DE9F843040081
:1041C0000D001600B4F10060B0F5801F01D3BDE80A
:1041D000F18300F05AF9B4F10060C70A4FF40061AE
:1041E000B0FBF1F202FB11025FEA5208D8F58069D8
:1041F0001FFA89F9B6B2B14503D3B14601E04FF4D5
:1042000080694FF480626E494FF4006000FB07F054
:1042100010F1006000F06FF8002000E0401C80B258
:104220001FFA89F9484509D2654980B210FA88F227
:1042300031F812104FF6FF729142EFD080B21FFAA0
:1042400089F9484538D2200000F068F85D490860D7
:1042500000205D49086002205B49086159480068F8
:104260005949886004205849C8605849564800F0A8
:10427000EDF9002802D15648FFF7CAFB00200AE0FA
:104280004F491FFA88F818FA80F280B235F81030DA
:1042900021F81230401C80B21FFA89F94845EFD34B
:1042A0004FF4806246494FF4006000FB07F010F1C4
:1042B0000060FFF76DFF05E04A4692B2290020003A
:1042C000FFF766FFB6B21FFA89F94E4502D100F03A
:1042D000EAF87CE77F1C5FF000081FFA89F915EB0C
:1042E000490514FA89F4B6EB0906B6B2B6F5806F43
:1042F00085DCB14685E7F8B504000D0016000027FF
:1043000007E02000FFF742FFBFB225F81700A41C0A
:104310007F1CBFB2B6B2B742F3D3F1BD0021B0F1FA
:104320000061B1F5804F01D2002146E02949411AD0
:10433000B1F5804F01D201213FE02749411AB1F583
:10434000804F01D2022138E02449411AB1F5804F53
:1043500001D2032131E02249411AB1F5803F01D257
:1043600004212AE01F49411AB1F5003F01D205217D
:1043700023E01D49411AB1F5003F01D206211CE09E
:104380001A49411AB1F5003F01D2072115E0184939
:10439000411AB1F5003F01D208210EE01549411A3A
:1043A000B1F5003F01D2092107E01349401AB0F5E9
:1043B000003F01D20A2100E00B21080070470000F5
:1043C0004CEB002018F50020F8F400201CF500202C
:1043D000604C0008004000080080000800C0000891
:1043E00000000108000002080000040800000608A0
:1043F0000000080800000A0800000C08F8B50600D4
:104400000F0014001D000120DFF8280290F91800A9
:10441000012801D1022037E00120DFF818120876C8
:104420004CF2503000F047F840B2002827D1002E5F
:1044300005D12100C9B2380000F0A7F813E0012E21
:1044400005D1210089B2380000F08BF80BE0022E74
:1044500004D12100380000F070F804E022002B00A5
:10446000380000F053F84CF2503000F024F8DFF838
:10447000C811096849084900DFF8BC211160002112
:10448000DFF8B021117640B2F2BD6B480068002819
:1044900007D56B486B4908606B486A490860002083
:1044A00000E0012070476448006850F00040624915
:1044B00008600020704738B50400002500205D49E1
:1044C000C861FEF7C4FA05005C480068C0030BD55C
:1044D00014F1010FF8D0002C04D0FEF7B8FA401BFD
:1044E0008442F1D2032010E054480068C00702D58E
:1044F0000120524908605148006810F0F20F03D0C3
:1045000000F055F8012000E0002032BD10B44A4907
:10451000096831F44071484C21604749096851F4F9
:104520004071454C21604449096851F00101424CF9
:1045300021600260436010BC70473F4A126832F449
:1045400040723D4B1A603C4A126852F400723A4B7A
:104550001A60394A126852F00102374B1A60016042
:104560007047354A126832F44072334B1A60324A4F
:10457000126852F48072304B1A602F4A126852F05F
:1045800001022D4B1A60018070472B4A126832F4E9
:104590004072294B1A60284A1268274B1A60264A33
:1045A000126852F00102244B1A60017070472348D0
:1045B0000068C00608D51F48C06950F010001D49AA
:1045C000C86110201D4908601C480068800608D595
:1045D0001848C06950F008001649C86120201749E2
:1045E000086016480068400608D51248C06950F0B7
:1045F00004001049C8614020104908600F48006855
:10460000000608D50B48C06950F002000949C8618E
:1046100080200A49086009480068800708D50548D5
:10462000C06950F020000349C861022003490860B6
:1046300070470000D8F40020103C02400C3C0240BF
:1046400023016745043C0240AB89EFCDF8B5040077
:104650000D0001260027DFF8B40190F918000128A9
:1046600001D1022049E00120DFF8A01108764CF2C8
:104670005030FFF720FF060076B2002E38D15FF0F1
:10468000FF3028602068012812D161682069C0B21B
:1046900000F034F84CF25030FFF70DFF0600DFF861
:1046A0007001006830F00400DFF8641108601DE05C
:1046B000A76800E07F1CE068A1680818874215D24F
:1046C0002169C9B2380000F02FF84CF25030FFF7E2
:1046D000F2FE0600DFF83801006830F0FA00DFF87B
:1046E0003011086076B2002EE4D02F6000F054F84C
:1046F000002046490876300040B2F2BD44490968BE
:1047000031F44071424A11604149096851F0040195
:104710003F4A11603E490968C0B2000250F480303F
:1047200008433B49086070470022C9B2002901D103
:1047300000220DE0C9B2012902D14FF4807207E0D6
:10474000C9B2022902D14FF4007201E04FF4407265
:104750002F49096831F440712D4B19602C490968C3
:1047600011432B4A11602A49096831F0F801284A9F
:1047700011605FF0F851B1FA81F1254A1268884062
:1047800050F002001043224908602148006850F4AC
:1047900080301F49086070471E480068800517D5A3
:1047A0001C48006830F400701A4908601948006815
:1047B00050F40060174908601648006830F4006043
:1047C000144908601348006850F4007011490860EB
:1047D00010480068400517D50E48006830F4806026
:1047E0000C4908600B48006850F480500949086083
:1047F0000848006830F480500649086005480068A1
:1048000050F480600349086070470000D8F400202D
:10481000103C0240003C02401248006850F4700016
:10482000104908601048006850F001000E49086007
:1048300000200E4908600C4800680D4908400A49EC
:1048400008600C480C4908600748006830F4802074
:10485000054908600020094908605FF000600849C8
:104860000860704788ED00E00038024008380240D8
:10487000FFFFF6FE10300024043802400C380240DE
:1048800008ED00E0CFB5CDB3D5FDD4DAD6D8C6F467
:10489000A3A1A3A10AB5C8B4FD36302A313073BA3A
:1048A000F32CC3BBD3D0BDD3CAD5B5BDB8FCD0C2E1
:1048B000D6B8C1EED4F2D6B4D0D0BEC9B0E641501D
:1048C0005000000019E050F8041BCB0744BFA9F1C9
:1048D00001035918121F0023042A41F8043BF9D29E
:1048E0005FEA827C0B4604D54FF0000CA1F800C0B3
:1048F0009B1CD10744BF0021197050F8042B002ADB
:10490000E1D170477047FEE7FEE7FEE7FEE770473C
:104910007047704780B5FEF794F8FEF727FF01BD9A
:10492000704780B50448FDF763FC01BD80B50348BE
:10493000FDF75EFC01BD000058F4002098F4002053
:1049400030B5016842688468091801EB5203D20748
:1049500048BF4C440C30994200D130BD11F9012BB5
:1049600011F8015B002A04F8015B02D5521CF9D151
:10497000F1E7521EF4D5EEE7C8E7B9FBD0E8D2AABA
:10498000B8FCD0C220415050A3ACC7EBB7A2CBCDEE
:104990002041505020B9CCBCFEA3A82E62696ECE37
:1049A000C4BCFEA3A90A0000426F6F744C6F61641F
:1049B00065723A4352432076657269666963617431
:1049C000696F6E20737563636573730A000000007E
:1049D00010B5074979441831064C7C44163404E07C
:1049E0000A68081D511888470146A142F8D110BD38
:1049F000500000006C000000426F6F744C6F6164E7
:104A000065723A43524320766572696669636174E0
:104A1000696F6E206661696C0A0000004EF688516D
:104A2000CEF20001086840F470000860BFF34F8FB9
:104A3000BFF36F8F4FF00070E1EE100A7047000077
:104A400085FEFFFFE4ED00004807002000000000A5
:104A5000F1FEFFFF640300006E0000000000002074
:104A6000426F6F744C6F616465723A61707020645C
:104A70006F776E6C6F61642066696E6973680A0097
:104A8000426F6F744C6F616465723A637263566112
:104A90006C756554727565203D2025780A0000000C
:104AA000426F6F744C6F616465723A435243566152
:104AB0006C7565203D2025780A000000B3CCD0F24B
:104AC000D1E9D6A4CAA7B0DCA3ACD6B4D0D0BEC9B5
:104AD000B0E6B3CCD0F20A00BDD3CAD5B5BD2563CC
:104AE000A3ACBFAACABCBDD3CAD5B8FCD0C2D0C57E
:104AF000CFA20A0000F00BF8002801D0FFF768FFF2
:104B00000020C046C046FEF788F800F002F80120F9
:104B1000704700F001B800000746384600F002F880
:104B2000FBE7000080B5C046C046024A11001820CD
:104B3000ABBEFBE726000200B5C8B4FD3173BAF383
:104B4000BFAACABCD6B4D0D04150500A0000000061
:104B500038B504460D46284600F006F8A84218BFAE
:104B60000024204632BD00000149FDF71DBF00BFF3
:104B700004000020415050D0B4C8EBB4CECAFDA30D
:104B8000BA25640A000000000A41505020B3A4B6C0
:104B9000C8A3BA2564D7D6BDDA0A0000435243D170
:104BA000E9D6A4C2EB3A25632563256325630A0091
:104BB000BFAACABCB8FCD0C2204150500A000000B5
:104BC000D1E9D6A4BDE1B9FB3A25780A000000007E
:104BD000435243D1E9D6A4C2EB3A25780A0000003B
:104BE000B3CCD0F2D1E9D6A4B3C9B9A60A0000006B
:104BF000BFAACABCD6B4D0D0204150500A00000091
:104C0000D6B4D0D0BEC9B0E64150500A0000000072
:104C1000000000000000000001020304060708096C
:104C20000148804701480047194800086D4C0008BA
:104C3000BFAACABCD6B4D0D00A000000C8D5D6BE20
:104C4000D0C5CFA23A257300256420253032780ADA
:104C500000000000A3BFA3BFA3BF253032780A0025
:104C6000B2C1B3FDCDEAB3C90A000000C046C046D8
:104C7000FFF7D4FEFFF73EFF00000000010203042F
:104C8000FFF7FEBFFFF7FEBFFFF7FEBFFFF7FEBF58
:104C9000FFF7FEBFFFF7FEBFFFF7FEBFFFF7FEBF48
:104CA000FFF7FEBFFFF7FEBFFFF7FEBFFFF7FEBF38
:104CB000FFF7FEBFFFF7FEBFFFF7FEBFFFF7FEBF28
:104CC000FFF7FEBFFFF7FEBFFFF7FEBFFFF7FEBF18
:104CD000FFF7FEBFFFF7FEBFFFF7FEBFFFF7FEBF08
:104CE000FFF7FEBFFFF7FEBFFFF7FEBFFFF7FEBFF8
:104CF000FFF7FEBFFFF7FEBFFFF7FEBFFFF7FEBFE8
:104D0000FFF7FEBFFFF7FEBFFFF7FEBFFFF7FEBFD7
:104D1000FFF7FEBFFFF7FEBFFFF7FEBFFFF7FEBFC7
:104D2000FFF7FEBFFFF7FEBFFFF7FEBFFFF7FEBFB7
:104D3000FFF7FEBFFFF7FEBFFFF7FEBFFFF7FEBFA7
:104D4000FFF7FEBFFFF7FEBFFFF7FEBFFFF7FEBF97
:104D5000FFF7FEBFFFF7FEBFFFF7FEBFFFF7FEBF87
:104D6000FFF7FEBFFFF7FEBFFFF7FEBFFFF7FEBF77
:104D7000FFF7FEBFFFF7FEBFFFF7FEBFFFF7FEBF67
:104D8000FFF7FEBFFFF7FEBFFFF7FEBFFFF7FEBF57
:104D9000FFF7FEBFFFF7FEBFFFF7FEBFFFF7FEBF47
:104DA000FFF7FEBFFFF7FEBFFFF7FEBFFFF7FEBF37
:104DB000FFF7FEBFFFF7FEBF230024F4000204014B
:104DC0000108F4002058F4002008F4002008F40042
:104DD0002008F4002041000020280000208100CF9E
:0F4DE00000F8FFDC00FAFFC6000401000100012B
:0400000508004C6D36
:00000001FF
